{
  "contractName": "SmartContract",
  "abi": [
    {
      "inputs": [],
      "stateMutability": "nonpayable",
      "type": "constructor"
    },
    {
      "anonymous": false,
      "inputs": [
        {
          "indexed": true,
          "internalType": "address",
          "name": "owner",
          "type": "address"
        },
        {
          "indexed": true,
          "internalType": "address",
          "name": "approved",
          "type": "address"
        },
        {
          "indexed": true,
          "internalType": "uint256",
          "name": "tokenId",
          "type": "uint256"
        }
      ],
      "name": "Approval",
      "type": "event"
    },
    {
      "anonymous": false,
      "inputs": [
        {
          "indexed": true,
          "internalType": "address",
          "name": "owner",
          "type": "address"
        },
        {
          "indexed": true,
          "internalType": "address",
          "name": "operator",
          "type": "address"
        },
        {
          "indexed": false,
          "internalType": "bool",
          "name": "approved",
          "type": "bool"
        }
      ],
      "name": "ApprovalForAll",
      "type": "event"
    },
    {
      "anonymous": false,
      "inputs": [
        {
          "indexed": true,
          "internalType": "address",
          "name": "previousOwner",
          "type": "address"
        },
        {
          "indexed": true,
          "internalType": "address",
          "name": "newOwner",
          "type": "address"
        }
      ],
      "name": "OwnershipTransferred",
      "type": "event"
    },
    {
      "anonymous": false,
      "inputs": [
        {
          "indexed": true,
          "internalType": "address",
          "name": "from",
          "type": "address"
        },
        {
          "indexed": true,
          "internalType": "address",
          "name": "to",
          "type": "address"
        },
        {
          "indexed": true,
          "internalType": "uint256",
          "name": "tokenId",
          "type": "uint256"
        }
      ],
      "name": "Transfer",
      "type": "event"
    },
    {
      "inputs": [
        {
          "internalType": "address",
          "name": "to",
          "type": "address"
        },
        {
          "internalType": "uint256",
          "name": "tokenId",
          "type": "uint256"
        }
      ],
      "name": "approve",
      "outputs": [],
      "stateMutability": "nonpayable",
      "type": "function"
    },
    {
      "inputs": [
        {
          "internalType": "address",
          "name": "owner",
          "type": "address"
        }
      ],
      "name": "balanceOf",
      "outputs": [
        {
          "internalType": "uint256",
          "name": "",
          "type": "uint256"
        }
      ],
      "stateMutability": "view",
      "type": "function",
      "constant": true
    },
    {
      "inputs": [
        {
          "internalType": "uint256",
          "name": "tokenId",
          "type": "uint256"
        }
      ],
      "name": "getApproved",
      "outputs": [
        {
          "internalType": "address",
          "name": "",
          "type": "address"
        }
      ],
      "stateMutability": "view",
      "type": "function",
      "constant": true
    },
    {
      "inputs": [
        {
          "internalType": "address",
          "name": "owner",
          "type": "address"
        },
        {
          "internalType": "address",
          "name": "operator",
          "type": "address"
        }
      ],
      "name": "isApprovedForAll",
      "outputs": [
        {
          "internalType": "bool",
          "name": "",
          "type": "bool"
        }
      ],
      "stateMutability": "view",
      "type": "function",
      "constant": true
    },
    {
      "inputs": [],
      "name": "name",
      "outputs": [
        {
          "internalType": "string",
          "name": "",
          "type": "string"
        }
      ],
      "stateMutability": "view",
      "type": "function",
      "constant": true
    },
    {
      "inputs": [],
      "name": "owner",
      "outputs": [
        {
          "internalType": "address",
          "name": "",
          "type": "address"
        }
      ],
      "stateMutability": "view",
      "type": "function",
      "constant": true
    },
    {
      "inputs": [
        {
          "internalType": "uint256",
          "name": "tokenId",
          "type": "uint256"
        }
      ],
      "name": "ownerOf",
      "outputs": [
        {
          "internalType": "address",
          "name": "",
          "type": "address"
        }
      ],
      "stateMutability": "view",
      "type": "function",
      "constant": true
    },
    {
      "inputs": [],
      "name": "renounceOwnership",
      "outputs": [],
      "stateMutability": "nonpayable",
      "type": "function"
    },
    {
      "inputs": [
        {
          "internalType": "address",
          "name": "from",
          "type": "address"
        },
        {
          "internalType": "address",
          "name": "to",
          "type": "address"
        },
        {
          "internalType": "uint256",
          "name": "tokenId",
          "type": "uint256"
        }
      ],
      "name": "safeTransferFrom",
      "outputs": [],
      "stateMutability": "nonpayable",
      "type": "function"
    },
    {
      "inputs": [
        {
          "internalType": "address",
          "name": "from",
          "type": "address"
        },
        {
          "internalType": "address",
          "name": "to",
          "type": "address"
        },
        {
          "internalType": "uint256",
          "name": "tokenId",
          "type": "uint256"
        },
        {
          "internalType": "bytes",
          "name": "_data",
          "type": "bytes"
        }
      ],
      "name": "safeTransferFrom",
      "outputs": [],
      "stateMutability": "nonpayable",
      "type": "function"
    },
    {
      "inputs": [
        {
          "internalType": "address",
          "name": "operator",
          "type": "address"
        },
        {
          "internalType": "bool",
          "name": "approved",
          "type": "bool"
        }
      ],
      "name": "setApprovalForAll",
      "outputs": [],
      "stateMutability": "nonpayable",
      "type": "function"
    },
    {
      "inputs": [
        {
          "internalType": "bytes4",
          "name": "interfaceId",
          "type": "bytes4"
        }
      ],
      "name": "supportsInterface",
      "outputs": [
        {
          "internalType": "bool",
          "name": "",
          "type": "bool"
        }
      ],
      "stateMutability": "view",
      "type": "function",
      "constant": true
    },
    {
      "inputs": [],
      "name": "symbol",
      "outputs": [
        {
          "internalType": "string",
          "name": "",
          "type": "string"
        }
      ],
      "stateMutability": "view",
      "type": "function",
      "constant": true
    },
    {
      "inputs": [
        {
          "internalType": "address",
          "name": "from",
          "type": "address"
        },
        {
          "internalType": "address",
          "name": "to",
          "type": "address"
        },
        {
          "internalType": "uint256",
          "name": "tokenId",
          "type": "uint256"
        }
      ],
      "name": "transferFrom",
      "outputs": [],
      "stateMutability": "nonpayable",
      "type": "function"
    },
    {
      "inputs": [
        {
          "internalType": "address",
          "name": "newOwner",
          "type": "address"
        }
      ],
      "name": "transferOwnership",
      "outputs": [],
      "stateMutability": "nonpayable",
      "type": "function"
    },
    {
      "inputs": [
        {
          "internalType": "uint256",
          "name": "tokenId",
          "type": "uint256"
        }
      ],
      "name": "tokenURI",
      "outputs": [
        {
          "internalType": "string",
          "name": "",
          "type": "string"
        }
      ],
      "stateMutability": "view",
      "type": "function",
      "constant": true
    },
    {
      "inputs": [],
      "name": "getAllTokens",
      "outputs": [
        {
          "components": [
            {
              "internalType": "uint256",
              "name": "id",
              "type": "uint256"
            },
            {
              "internalType": "string",
              "name": "uri",
              "type": "string"
            }
          ],
          "internalType": "struct SmartContract.RenderToken[]",
          "name": "",
          "type": "tuple[]"
        }
      ],
      "stateMutability": "view",
      "type": "function",
      "constant": true
    },
    {
      "inputs": [
        {
          "internalType": "address",
          "name": "recipient",
          "type": "address"
        },
        {
          "internalType": "string",
          "name": "uri",
          "type": "string"
        }
      ],
      "name": "mint",
      "outputs": [
        {
          "internalType": "uint256",
          "name": "",
          "type": "uint256"
        }
      ],
      "stateMutability": "nonpayable",
      "type": "function"
    }
  ],
  "bytecode": "0x60806040523480156200001157600080fd5b50604080518082018252600e81526d14db585c9d0810dbdb9d1c9858dd60921b602080830191825283518085019094526002845261534360f01b9084015281519192916200006291600091620000f1565b50805162000078906001906020840190620000f1565b505050620000956200008f6200009b60201b60201c565b6200009f565b620001d4565b3390565b600680546001600160a01b038381166001600160a01b0319831681179093556040519116919082907f8be0079c531659141344cd1fd0a4f28419497f9722a3daafe3b4186f6b6457e090600090a35050565b828054620000ff9062000197565b90600052602060002090601f0160209004810192826200012357600085556200016e565b82601f106200013e57805160ff19168380011785556200016e565b828001600101855582156200016e579182015b828111156200016e57825182559160200191906001019062000151565b506200017c92915062000180565b5090565b5b808211156200017c576000815560010162000181565b600281046001821680620001ac57607f821691505b60208210811415620001ce57634e487b7160e01b600052602260045260246000fd5b50919050565b6117b180620001e46000396000f3fe608060405234801561001057600080fd5b50600436106101165760003560e01c8063715018a6116100a2578063b88d4fde11610071578063b88d4fde14610227578063c87b56dd1461023a578063d0def5211461024d578063e985e9c514610260578063f2fde38b1461027357610116565b8063715018a6146101fc5780638da5cb5b1461020457806395d89b411461020c578063a22cb4651461021457610116565b806323b872dd116100e957806323b872dd1461018e5780632a5c792a146101a157806342842e0e146101b65780636352211e146101c957806370a08231146101dc57610116565b806301ffc9a71461011b57806306fdde0314610144578063081812fc14610159578063095ea7b314610179575b600080fd5b61012e610129366004611119565b610286565b60405161013b9190611276565b60405180910390f35b61014c6102ce565b60405161013b9190611281565b61016c610167366004611151565b610360565b60405161013b91906111b4565b61018c6101873660046110f0565b6103ac565b005b61018c61019c366004610fa3565b610444565b6101a961047c565b60405161013b9190611205565b61018c6101c4366004610fa3565b610582565b61016c6101d7366004611151565b61059d565b6101ef6101ea366004610f57565b6105d2565b60405161013b91906116ab565b61018c610616565b61016c610661565b61014c610670565b61018c610222366004611057565b61067f565b61018c610235366004610fde565b61074d565b61014c610248366004611151565b61078c565b6101ef61025b366004611091565b61083f565b61012e61026e366004610f71565b610873565b61018c610281366004610f57565b6108a1565b60006001600160e01b031982166380ac58cd60e01b14806102b757506001600160e01b03198216635b5e139f60e01b145b806102c657506102c682610912565b90505b919050565b6060600080546102dd906116e3565b80601f0160208091040260200160405190810160405280929190818152602001828054610309906116e3565b80156103565780601f1061032b57610100808354040283529160200191610356565b820191906000526020600020905b81548152906001019060200180831161033957829003601f168201915b5050505050905090565b600061036b8261092b565b6103905760405162461bcd60e51b81526004016103879061154f565b60405180910390fd5b506000908152600460205260409020546001600160a01b031690565b60006103b78261059d565b9050806001600160a01b0316836001600160a01b031614156103eb5760405162461bcd60e51b815260040161038790611619565b806001600160a01b03166103fd610948565b6001600160a01b0316148061041957506104198161026e610948565b6104355760405162461bcd60e51b81526004016103879061142a565b61043f838361094c565b505050565b61045561044f610948565b826109ba565b6104715760405162461bcd60e51b81526004016103879061165a565b61043f838383610a3f565b6060600061048a6007610b6c565b90506000808267ffffffffffffffff8111156104b657634e487b7160e01b600052604160045260246000fd5b6040519080825280602002602001820160405280156104ef57816020015b6104dc610e1d565b8152602001906001900390816104d45790505b50905060005b8381101561057a576105068361092b565b1561055a5760006105168461078c565b905060405180604001604052808581526020018281525083858151811061054d57634e487b7160e01b600052603260045260246000fd5b6020026020010181905250505b826105648161171e565b93505080806105729061171e565b9150506104f5565b509250505090565b61043f8383836040518060200160405280600081525061074d565b6000818152600260205260408120546001600160a01b0316806102c65760405162461bcd60e51b8152600401610387906114d1565b60006001600160a01b0382166105fa5760405162461bcd60e51b815260040161038790611487565b506001600160a01b031660009081526003602052604090205490565b61061e610948565b6001600160a01b031661062f610661565b6001600160a01b0316146106555760405162461bcd60e51b81526004016103879061159b565b61065f6000610b70565b565b6006546001600160a01b031690565b6060600180546102dd906116e3565b610687610948565b6001600160a01b0316826001600160a01b031614156106b85760405162461bcd60e51b8152600401610387906113a7565b80600560006106c5610948565b6001600160a01b03908116825260208083019390935260409182016000908120918716808252919093529120805460ff191692151592909217909155610709610948565b6001600160a01b03167f17307eab39ab6107e8899845ad3d59bd9653f200f220920489ca2b5937696c31836040516107419190611276565b60405180910390a35050565b61075e610758610948565b836109ba565b61077a5760405162461bcd60e51b81526004016103879061165a565b61078684848484610bc2565b50505050565b60606107978261092b565b6107a057600080fd5b600082815260086020526040812080546107b9906116e3565b80601f01602080910402602001604051908101604052809291908181526020018280546107e5906116e3565b80156108325780601f1061080757610100808354040283529160200191610832565b820191906000526020600020905b81548152906001019060200180831161081557829003601f168201915b5093979650505050505050565b60008061084c6007610b6c565b90506108588482610bf5565b6108628184610cd4565b61086c6007610cf3565b9392505050565b6001600160a01b03918216600090815260056020908152604080832093909416825291909152205460ff1690565b6108a9610948565b6001600160a01b03166108ba610661565b6001600160a01b0316146108e05760405162461bcd60e51b81526004016103879061159b565b6001600160a01b0381166109065760405162461bcd60e51b8152600401610387906112e6565b61090f81610b70565b50565b6001600160e01b031981166301ffc9a760e01b14919050565b6000908152600260205260409020546001600160a01b0316151590565b3390565b600081815260046020526040902080546001600160a01b0319166001600160a01b03841690811790915581906109818261059d565b6001600160a01b03167f8c5be1e5ebec7d5bd14f71427d1e84f3dd0314c0f7b2291e5b200ac8c7c3b92560405160405180910390a45050565b60006109c58261092b565b6109e15760405162461bcd60e51b8152600401610387906113de565b60006109ec8361059d565b9050806001600160a01b0316846001600160a01b03161480610a275750836001600160a01b0316610a1c84610360565b6001600160a01b0316145b80610a375750610a378185610873565b949350505050565b826001600160a01b0316610a528261059d565b6001600160a01b031614610a785760405162461bcd60e51b8152600401610387906115d0565b6001600160a01b038216610a9e5760405162461bcd60e51b815260040161038790611363565b610aa983838361043f565b610ab460008261094c565b6001600160a01b0383166000908152600360205260408120805460019290610add9084906116cc565b90915550506001600160a01b0382166000908152600360205260408120805460019290610b0b9084906116b4565b909155505060008181526002602052604080822080546001600160a01b0319166001600160a01b0386811691821790925591518493918716917fddf252ad1be2c89b69c2b068fc378daa952ba7f163c4a11628f55a4df523b3ef91a4505050565b5490565b600680546001600160a01b038381166001600160a01b0319831681179093556040519116919082907f8be0079c531659141344cd1fd0a4f28419497f9722a3daafe3b4186f6b6457e090600090a35050565b610bcd848484610a3f565b610bd984848484610cfc565b6107865760405162461bcd60e51b815260040161038790611294565b6001600160a01b038216610c1b5760405162461bcd60e51b81526004016103879061151a565b610c248161092b565b15610c415760405162461bcd60e51b81526004016103879061132c565b610c4d6000838361043f565b6001600160a01b0382166000908152600360205260408120805460019290610c769084906116b4565b909155505060008181526002602052604080822080546001600160a01b0319166001600160a01b03861690811790915590518392907fddf252ad1be2c89b69c2b068fc378daa952ba7f163c4a11628f55a4df523b3ef908290a45050565b6000828152600860209081526040909120825161043f92840190610e37565b80546001019055565b6000610d10846001600160a01b0316610e17565b15610e0c57836001600160a01b031663150b7a02610d2c610948565b8786866040518563ffffffff1660e01b8152600401610d4e94939291906111c8565b602060405180830381600087803b158015610d6857600080fd5b505af1925050508015610d98575060408051601f3d908101601f19168201909252610d9591810190611135565b60015b610df2573d808015610dc6576040519150601f19603f3d011682016040523d82523d6000602084013e610dcb565b606091505b508051610dea5760405162461bcd60e51b815260040161038790611294565b805181602001fd5b6001600160e01b031916630a85bd0160e11b149050610a37565b506001949350505050565b3b151590565b604051806040016040528060008152602001606081525090565b828054610e43906116e3565b90600052602060002090601f016020900481019282610e655760008555610eab565b82601f10610e7e57805160ff1916838001178555610eab565b82800160010185558215610eab579182015b82811115610eab578251825591602001919060010190610e90565b50610eb7929150610ebb565b5090565b5b80821115610eb75760008155600101610ebc565b600067ffffffffffffffff80841115610eeb57610eeb61174f565b604051601f8501601f191681016020018281118282101715610f0f57610f0f61174f565b604052848152915081838501861015610f2757600080fd5b8484602083013760006020868301015250509392505050565b80356001600160a01b03811681146102c957600080fd5b600060208284031215610f68578081fd5b61086c82610f40565b60008060408385031215610f83578081fd5b610f8c83610f40565b9150610f9a60208401610f40565b90509250929050565b600080600060608486031215610fb7578081fd5b610fc084610f40565b9250610fce60208501610f40565b9150604084013590509250925092565b60008060008060808587031215610ff3578081fd5b610ffc85610f40565b935061100a60208601610f40565b925060408501359150606085013567ffffffffffffffff81111561102c578182fd5b8501601f8101871361103c578182fd5b61104b87823560208401610ed0565b91505092959194509250565b60008060408385031215611069578182fd5b61107283610f40565b915060208301358015158114611086578182fd5b809150509250929050565b600080604083850312156110a3578182fd5b6110ac83610f40565b9150602083013567ffffffffffffffff8111156110c7578182fd5b8301601f810185136110d7578182fd5b6110e685823560208401610ed0565b9150509250929050565b60008060408385031215611102578182fd5b61110b83610f40565b946020939093013593505050565b60006020828403121561112a578081fd5b813561086c81611765565b600060208284031215611146578081fd5b815161086c81611765565b600060208284031215611162578081fd5b5035919050565b60008151808452815b8181101561118e57602081850181015186830182015201611172565b8181111561119f5782602083870101525b50601f01601f19169290920160200192915050565b6001600160a01b0391909116815260200190565b6001600160a01b03858116825284166020820152604081018390526080606082018190526000906111fb90830184611169565b9695505050505050565b60208082528251828201819052600091906040908185019080840286018301878501865b8381101561126857888303603f1901855281518051845287015187840187905261125587850182611169565b9588019593505090860190600101611229565b509098975050505050505050565b901515815260200190565b60006020825261086c6020830184611169565b60208082526032908201527f4552433732313a207472616e7366657220746f206e6f6e20455243373231526560408201527131b2b4bb32b91034b6b83632b6b2b73a32b960711b606082015260800190565b60208082526026908201527f4f776e61626c653a206e6577206f776e657220697320746865207a65726f206160408201526564647265737360d01b606082015260800190565b6020808252601c908201527f4552433732313a20746f6b656e20616c7265616479206d696e74656400000000604082015260600190565b60208082526024908201527f4552433732313a207472616e7366657220746f20746865207a65726f206164646040820152637265737360e01b606082015260800190565b60208082526019908201527f4552433732313a20617070726f766520746f2063616c6c657200000000000000604082015260600190565b6020808252602c908201527f4552433732313a206f70657261746f7220717565727920666f72206e6f6e657860408201526b34b9ba32b73a103a37b5b2b760a11b606082015260800190565b60208082526038908201527f4552433732313a20617070726f76652063616c6c6572206973206e6f74206f7760408201527f6e6572206e6f7220617070726f76656420666f7220616c6c0000000000000000606082015260800190565b6020808252602a908201527f4552433732313a2062616c616e636520717565727920666f7220746865207a65604082015269726f206164647265737360b01b606082015260800190565b60208082526029908201527f4552433732313a206f776e657220717565727920666f72206e6f6e657869737460408201526832b73a103a37b5b2b760b91b606082015260800190565b6020808252818101527f4552433732313a206d696e7420746f20746865207a65726f2061646472657373604082015260600190565b6020808252602c908201527f4552433732313a20617070726f76656420717565727920666f72206e6f6e657860408201526b34b9ba32b73a103a37b5b2b760a11b606082015260800190565b6020808252818101527f4f776e61626c653a2063616c6c6572206973206e6f7420746865206f776e6572604082015260600190565b60208082526029908201527f4552433732313a207472616e73666572206f6620746f6b656e2074686174206960408201526839903737ba1037bbb760b91b606082015260800190565b60208082526021908201527f4552433732313a20617070726f76616c20746f2063757272656e74206f776e656040820152603960f91b606082015260800190565b60208082526031908201527f4552433732313a207472616e736665722063616c6c6572206973206e6f74206f6040820152701ddb995c881b9bdc88185c1c1c9bdd9959607a1b606082015260800190565b90815260200190565b600082198211156116c7576116c7611739565b500190565b6000828210156116de576116de611739565b500390565b6002810460018216806116f757607f821691505b6020821081141561171857634e487b7160e01b600052602260045260246000fd5b50919050565b600060001982141561173257611732611739565b5060010190565b634e487b7160e01b600052601160045260246000fd5b634e487b7160e01b600052604160045260246000fd5b6001600160e01b03198116811461090f57600080fdfea26469706673582212202e4a5e82122a0af92a1964553ab51cef54d6f049721664196c18b2f0325fe37464736f6c63430008000033",
  "immutableReferences": {},
  "source": "// SPDX-License-Identifier: MIT\n\npragma solidity ^0.8.0;\n\nimport \"@openzeppelin/contracts/token/ERC721/ERC721.sol\";\nimport \"@openzeppelin/contracts/utils/Counters.sol\";\nimport \"@openzeppelin/contracts/access/Ownable.sol\";\n\ncontract SmartContract is ERC721, Ownable {\n  using Counters for Counters.Counter;\n  using Strings for uint256;\n  Counters.Counter _tokenIds;\n  mapping(uint256 => string) _tokenURIs;\n\n  struct RenderToken {\n    uint256 id;\n    string uri;\n  }\n\n  constructor() ERC721(\"Smart Contract\", \"SC\") {}\n\n  function _setTokenURI(uint256 tokenId, string memory _tokenURI) internal {\n    _tokenURIs[tokenId] = _tokenURI;\n  }\n\n  function tokenURI(uint256 tokenId)\n    public\n    view\n    virtual\n    override\n    returns (string memory)\n  {\n    require(_exists(tokenId));\n    string memory _tokenURI = _tokenURIs[tokenId];\n    return _tokenURI;\n  }\n\n  function getAllTokens() public view returns (RenderToken[] memory) {\n    uint256 lastestId = _tokenIds.current();\n    uint256 counter = 0;\n    RenderToken[] memory res = new RenderToken[](lastestId);\n    for (uint256 i = 0; i < lastestId; i++) {\n      if (_exists(counter)) {\n        string memory uri = tokenURI(counter);\n        res[counter] = RenderToken(counter, uri);\n      }\n      counter++;\n    }\n    return res;\n  }\n\n  function mint(address recipient, string memory uri) public returns (uint256) {\n    uint256 newId = _tokenIds.current();\n    _mint(recipient, newId);\n    _setTokenURI(newId, uri);\n    _tokenIds.increment();\n    return newId;\n  }\n}\n",
  "sourcePath": "/Users/danielbotha/Desktop/Tutorial/frontend_base_dapp/contracts/SmartContract.sol",
  "compiler": {
    "name": "solc",
    "version": "0.8.0+commit.c7dfd78e.Emscripten.clang"
  },
  "schemaVersion": "3.4.1",
  "updatedAt": "2021-08-21T19:28:07.816Z",
  "networkType": "ethereum",
  "devdoc": {
    "kind": "dev",
    "methods": {
      "approve(address,uint256)": {
        "details": "See {IERC721-approve}."
      },
      "balanceOf(address)": {
        "details": "See {IERC721-balanceOf}."
      },
      "getApproved(uint256)": {
        "details": "See {IERC721-getApproved}."
      },
      "isApprovedForAll(address,address)": {
        "details": "See {IERC721-isApprovedForAll}."
      },
      "name()": {
        "details": "See {IERC721Metadata-name}."
      },
      "owner()": {
        "details": "Returns the address of the current owner."
      },
      "ownerOf(uint256)": {
        "details": "See {IERC721-ownerOf}."
      },
      "renounceOwnership()": {
        "details": "Leaves the contract without owner. It will not be possible to call `onlyOwner` functions anymore. Can only be called by the current owner. NOTE: Renouncing ownership will leave the contract without an owner, thereby removing any functionality that is only available to the owner."
      },
      "safeTransferFrom(address,address,uint256)": {
        "details": "See {IERC721-safeTransferFrom}."
      },
      "safeTransferFrom(address,address,uint256,bytes)": {
        "details": "See {IERC721-safeTransferFrom}."
      },
      "setApprovalForAll(address,bool)": {
        "details": "See {IERC721-setApprovalForAll}."
      },
      "supportsInterface(bytes4)": {
        "details": "See {IERC165-supportsInterface}."
      },
      "symbol()": {
        "details": "See {IERC721Metadata-symbol}."
      },
      "tokenURI(uint256)": {
        "details": "See {IERC721Metadata-tokenURI}."
      },
      "transferFrom(address,address,uint256)": {
        "details": "See {IERC721-transferFrom}."
      },
      "transferOwnership(address)": {
        "details": "Transfers ownership of the contract to a new account (`newOwner`). Can only be called by the current owner."
      }
    },
    "version": 1
  },
  "userdoc": {
    "kind": "user",
    "methods": {},
    "version": 1
  }
}